{
  "contractName": "Auctions",
  "abi": [
    {
      "constant": true,
      "inputs": [
        {
          "name": "",
          "type": "uint256"
        }
      ],
      "name": "auctions",
      "outputs": [
        {
          "name": "name",
          "type": "string"
        },
        {
          "name": "price",
          "type": "uint256"
        },
        {
          "name": "metadata",
          "type": "string"
        },
        {
          "name": "tokenId",
          "type": "uint256"
        },
        {
          "name": "repoAddress",
          "type": "address"
        },
        {
          "name": "owner",
          "type": "address"
        },
        {
          "name": "active",
          "type": "bool"
        },
        {
          "name": "finalized",
          "type": "bool"
        }
      ],
      "payable": false,
      "stateMutability": "view",
      "type": "function"
    },
    {
      "constant": true,
      "inputs": [
        {
          "name": "",
          "type": "address"
        },
        {
          "name": "",
          "type": "uint256"
        }
      ],
      "name": "auctionOwner",
      "outputs": [
        {
          "name": "",
          "type": "uint256"
        }
      ],
      "payable": false,
      "stateMutability": "view",
      "type": "function"
    },
    {
      "payable": false,
      "stateMutability": "nonpayable",
      "type": "fallback"
    },
    {
      "anonymous": false,
      "inputs": [
        {
          "indexed": false,
          "name": "_owner",
          "type": "address"
        },
        {
          "indexed": false,
          "name": "_auctionId",
          "type": "uint256"
        }
      ],
      "name": "AuctionCreated",
      "type": "event"
    },
    {
      "anonymous": false,
      "inputs": [
        {
          "indexed": false,
          "name": "_owner",
          "type": "address"
        },
        {
          "indexed": false,
          "name": "_auctionId",
          "type": "uint256"
        }
      ],
      "name": "AuctionFinalized",
      "type": "event"
    },
    {
      "constant": false,
      "inputs": [
        {
          "name": "_repoAddress",
          "type": "address"
        },
        {
          "name": "_tokenId",
          "type": "uint256"
        },
        {
          "name": "_auctionTitle",
          "type": "string"
        },
        {
          "name": "_metadata",
          "type": "string"
        },
        {
          "name": "_price",
          "type": "uint256"
        }
      ],
      "name": "createAuction",
      "outputs": [
        {
          "name": "",
          "type": "bool"
        }
      ],
      "payable": false,
      "stateMutability": "nonpayable",
      "type": "function"
    },
    {
      "constant": false,
      "inputs": [
        {
          "name": "_auctionId",
          "type": "uint256"
        },
        {
          "name": "_to",
          "type": "address"
        }
      ],
      "name": "finalizeAuction",
      "outputs": [],
      "payable": false,
      "stateMutability": "nonpayable",
      "type": "function"
    },
    {
      "constant": true,
      "inputs": [],
      "name": "getCount",
      "outputs": [
        {
          "name": "",
          "type": "uint256"
        }
      ],
      "payable": false,
      "stateMutability": "view",
      "type": "function"
    },
    {
      "constant": true,
      "inputs": [
        {
          "name": "_owner",
          "type": "address"
        }
      ],
      "name": "getAuctionsOf",
      "outputs": [
        {
          "name": "",
          "type": "uint256[]"
        }
      ],
      "payable": false,
      "stateMutability": "view",
      "type": "function"
    },
    {
      "constant": true,
      "inputs": [
        {
          "name": "_owner",
          "type": "address"
        }
      ],
      "name": "getAuctionsCountOfOwner",
      "outputs": [
        {
          "name": "",
          "type": "uint256"
        }
      ],
      "payable": false,
      "stateMutability": "view",
      "type": "function"
    },
    {
      "constant": true,
      "inputs": [
        {
          "name": "_auctionId",
          "type": "uint256"
        }
      ],
      "name": "getAuctionById",
      "outputs": [
        {
          "name": "name",
          "type": "string"
        },
        {
          "name": "price",
          "type": "uint256"
        },
        {
          "name": "metadata",
          "type": "string"
        },
        {
          "name": "tokenId",
          "type": "uint256"
        },
        {
          "name": "repoAddress",
          "type": "address"
        },
        {
          "name": "owner",
          "type": "address"
        },
        {
          "name": "active",
          "type": "bool"
        },
        {
          "name": "finalized",
          "type": "bool"
        }
      ],
      "payable": false,
      "stateMutability": "view",
      "type": "function"
    }
  ],
  "bytecode": "0x608060405234801561001057600080fd5b506116bb806100206000396000f30060806040526004361061008e576000357c0100000000000000000000000000000000000000000000000000000000900463ffffffff1680631626b759146100a057806318111ada146100ed578063571a26a0146102895780639472559f14610425578063a87d942c14610520578063b1b61bfa1461054b578063c8756cda146105e3578063d56aa55814610644575b34801561009a57600080fd5b50600080fd5b3480156100ac57600080fd5b506100eb60048036038101908080359060200190929190803573ffffffffffffffffffffffffffffffffffffffff16906020019092919050505061069b565b005b3480156100f957600080fd5b5061011860048036038101908080359060200190929190505050610a04565b6040518080602001898152602001806020018881526020018773ffffffffffffffffffffffffffffffffffffffff1673ffffffffffffffffffffffffffffffffffffffff1681526020018673ffffffffffffffffffffffffffffffffffffffff1673ffffffffffffffffffffffffffffffffffffffff168152602001851515151581526020018415151515815260200183810383528b818151815260200191508051906020019080838360005b838110156101e05780820151818401526020810190506101c5565b50505050905090810190601f16801561020d5780820380516001836020036101000a031916815260200191505b50838103825289818151815260200191508051906020019080838360005b8381101561024657808201518184015260208101905061022b565b50505050905090810190601f1680156102735780820380516001836020036101000a031916815260200191505b509a505050505050505050505060405180910390f35b34801561029557600080fd5b506102b460048036038101908080359060200190929190505050610cca565b6040518080602001898152602001806020018881526020018773ffffffffffffffffffffffffffffffffffffffff1673ffffffffffffffffffffffffffffffffffffffff1681526020018673ffffffffffffffffffffffffffffffffffffffff1673ffffffffffffffffffffffffffffffffffffffff168152602001851515151581526020018415151515815260200183810383528b818151815260200191508051906020019080838360005b8381101561037c578082015181840152602081019050610361565b50505050905090810190601f1680156103a95780820380516001836020036101000a031916815260200191505b50838103825289818151815260200191508051906020019080838360005b838110156103e25780820151818401526020810190506103c7565b50505050905090810190601f16801561040f5780820380516001836020036101000a031916815260200191505b509a505050505050505050505060405180910390f35b34801561043157600080fd5b50610506600480360381019080803573ffffffffffffffffffffffffffffffffffffffff16906020019092919080359060200190929190803590602001908201803590602001908080601f0160208091040260200160405190810160405280939291908181526020018383808284378201915050505050509192919290803590602001908201803590602001908080601f016020809104026020016040519081016040528093929190818152602001838380828437820191505050505050919291929080359060200190929190505050610eab565b604051808215151515815260200191505060405180910390f35b34801561052c57600080fd5b50610535611293565b6040518082815260200191505060405180910390f35b34801561055757600080fd5b5061058c600480360381019080803573ffffffffffffffffffffffffffffffffffffffff16906020019092919050505061129f565b6040518080602001828103825283818151815260200191508051906020019060200280838360005b838110156105cf5780820151818401526020810190506105b4565b505050509050019250505060405180910390f35b3480156105ef57600080fd5b5061062e600480360381019080803573ffffffffffffffffffffffffffffffffffffffff1690602001909291908035906020019092919050505061133b565b6040518082815260200191505060405180910390f35b34801561065057600080fd5b50610685600480360381019080803573ffffffffffffffffffffffffffffffffffffffff16906020019092919050505061136b565b6040518082815260200191505060405180910390f35b6106a3611574565b6000838154811015156106b257fe5b90600052602060002090600602016101006040519081016040529081600082018054600181600116156101000203166002900480601f0160208091040260200160405190810160405280929190818152602001828054600181600116156101000203166002900480156107665780601f1061073b57610100808354040283529160200191610766565b820191906000526020600020905b81548152906001019060200180831161074957829003601f168201915b5050505050815260200160018201548152602001600282018054600181600116156101000203166002900480601f0160208091040260200160405190810160405280929190818152602001828054600181600116156101000203166002900480156108125780601f106107e757610100808354040283529160200191610812565b820191906000526020600020905b8154815290600101906020018083116107f557829003601f168201915b50505050508152602001600382015481526020016004820160009054906101000a900473ffffffffffffffffffffffffffffffffffffffff1673ffffffffffffffffffffffffffffffffffffffff1673ffffffffffffffffffffffffffffffffffffffff1681526020016005820160009054906101000a900473ffffffffffffffffffffffffffffffffffffffff1673ffffffffffffffffffffffffffffffffffffffff1673ffffffffffffffffffffffffffffffffffffffff1681526020016005820160149054906101000a900460ff161515151581526020016005820160159054906101000a900460ff161515151581525050905061091d3083836080015184606001516113b7565b156109ff576000808481548110151561093257fe5b906000526020600020906006020160050160146101000a81548160ff021916908315150217905550600160008481548110151561096b57fe5b906000526020600020906006020160050160156101000a81548160ff0219169083151502179055507f357afab190ee87fe0ef1c717f2728d2904d9e415a069d99f4d9382873cb3279d3384604051808373ffffffffffffffffffffffffffffffffffffffff1673ffffffffffffffffffffffffffffffffffffffff1681526020018281526020019250505060405180910390a15b505050565b6060600060606000806000806000610a1a611574565b60008a815481101515610a2957fe5b90600052602060002090600602016101006040519081016040529081600082018054600181600116156101000203166002900480601f016020809104026020016040519081016040528092919081815260200182805460018160011615610100020316600290048015610add5780601f10610ab257610100808354040283529160200191610add565b820191906000526020600020905b815481529060010190602001808311610ac057829003601f168201915b5050505050815260200160018201548152602001600282018054600181600116156101000203166002900480601f016020809104026020016040519081016040528092919081815260200182805460018160011615610100020316600290048015610b895780601f10610b5e57610100808354040283529160200191610b89565b820191906000526020600020905b815481529060010190602001808311610b6c57829003601f168201915b50505050508152602001600382015481526020016004820160009054906101000a900473ffffffffffffffffffffffffffffffffffffffff1673ffffffffffffffffffffffffffffffffffffffff1673ffffffffffffffffffffffffffffffffffffffff1681526020016005820160009054906101000a900473ffffffffffffffffffffffffffffffffffffffff1673ffffffffffffffffffffffffffffffffffffffff1673ffffffffffffffffffffffffffffffffffffffff1681526020016005820160149054906101000a900460ff161515151581526020016005820160159054906101000a900460ff1615151515815250509050806000015181602001518260400151836060015184608001518560a001518660c001518760e001518797508595509850985098509850985098509850985050919395975091939597565b600081815481101515610cd957fe5b9060005260206000209060060201600091509050806000018054600181600116156101000203166002900480601f016020809104026020016040519081016040528092919081815260200182805460018160011615610100020316600290048015610d855780601f10610d5a57610100808354040283529160200191610d85565b820191906000526020600020905b815481529060010190602001808311610d6857829003601f168201915b505050505090806001015490806002018054600181600116156101000203166002900480601f016020809104026020016040519081016040528092919081815260200182805460018160011615610100020316600290048015610e295780601f10610dfe57610100808354040283529160200191610e29565b820191906000526020600020905b815481529060010190602001808311610e0c57829003601f168201915b5050505050908060030154908060040160009054906101000a900473ffffffffffffffffffffffffffffffffffffffff16908060050160009054906101000a900473ffffffffffffffffffffffffffffffffffffffff16908060050160149054906101000a900460ff16908060050160159054906101000a900460ff16905088565b600080610eb6611574565b878760008273ffffffffffffffffffffffffffffffffffffffff16636352211e836040518263ffffffff167c010000000000000000000000000000000000000000000000000000000002815260040180828152602001915050602060405180830381600087803b158015610f2957600080fd5b505af1158015610f3d573d6000803e3d6000fd5b505050506040513d6020811015610f5357600080fd5b810190808051906020019092919050505090503073ffffffffffffffffffffffffffffffffffffffff168173ffffffffffffffffffffffffffffffffffffffff16141515610fa057600080fd5b600080549050945088846000018190525086846020018181525050878460400181905250898460600181815250508a846080019073ffffffffffffffffffffffffffffffffffffffff16908173ffffffffffffffffffffffffffffffffffffffff1681525050338460a0019073ffffffffffffffffffffffffffffffffffffffff16908173ffffffffffffffffffffffffffffffffffffffff168152505060018460c001901515908115158152505060008460e00190151590811515815250506000849080600181540180825580915050906001820390600052602060002090600602016000909192909190915060008201518160000190805190602001906110aa9291906115ea565b506020820151816001015560408201518160020190805190602001906110d19291906115ea565b506060820151816003015560808201518160040160006101000a81548173ffffffffffffffffffffffffffffffffffffffff021916908373ffffffffffffffffffffffffffffffffffffffff16021790555060a08201518160050160006101000a81548173ffffffffffffffffffffffffffffffffffffffff021916908373ffffffffffffffffffffffffffffffffffffffff16021790555060c08201518160050160146101000a81548160ff02191690831515021790555060e08201518160050160156101000a81548160ff021916908315150217905550505050600160003373ffffffffffffffffffffffffffffffffffffffff1673ffffffffffffffffffffffffffffffffffffffff1681526020019081526020016000208590806001815401808255809150509060018203906000526020600020016000909192909190915055507f3249a06bd478adf780bb7930214ad005e9cfa517d63221c0b77f27199d1a58b33386604051808373ffffffffffffffffffffffffffffffffffffffff1673ffffffffffffffffffffffffffffffffffffffff1681526020018281526020019250505060405180910390a160019550505050505095945050505050565b60008080549050905090565b606080600160008473ffffffffffffffffffffffffffffffffffffffff1673ffffffffffffffffffffffffffffffffffffffff16815260200190815260200160002080548060200260200160405190810160405280929190818152602001828054801561132b57602002820191906000526020600020905b815481526020019060010190808311611317575b5050505050905080915050919050565b60016020528160005260406000208181548110151561135657fe5b90600052602060002001600091509150505481565b6000600160008373ffffffffffffffffffffffffffffffffffffffff1673ffffffffffffffffffffffffffffffffffffffff168152602001908152602001600020805490509050919050565b6000808390508073ffffffffffffffffffffffffffffffffffffffff1663095ea7b386856040518363ffffffff167c0100000000000000000000000000000000000000000000000000000000028152600401808373ffffffffffffffffffffffffffffffffffffffff1673ffffffffffffffffffffffffffffffffffffffff16815260200182815260200192505050600060405180830381600087803b15801561146057600080fd5b505af1158015611474573d6000803e3d6000fd5b505050508073ffffffffffffffffffffffffffffffffffffffff166323b872dd8787866040518463ffffffff167c0100000000000000000000000000000000000000000000000000000000028152600401808473ffffffffffffffffffffffffffffffffffffffff1673ffffffffffffffffffffffffffffffffffffffff1681526020018373ffffffffffffffffffffffffffffffffffffffff1673ffffffffffffffffffffffffffffffffffffffff1681526020018281526020019350505050600060405180830381600087803b15801561154f57600080fd5b505af1158015611563573d6000803e3d6000fd5b505050506001915050949350505050565b6101006040519081016040528060608152602001600081526020016060815260200160008152602001600073ffffffffffffffffffffffffffffffffffffffff168152602001600073ffffffffffffffffffffffffffffffffffffffff1681526020016000151581526020016000151581525090565b828054600181600116156101000203166002900490600052602060002090601f016020900481019282601f1061162b57805160ff1916838001178555611659565b82800160010185558215611659579182015b8281111561165857825182559160200191906001019061163d565b5b509050611666919061166a565b5090565b61168c91905b80821115611688576000816000905550600101611670565b5090565b905600a165627a7a72305820b6928137bf9feceb542e2e392a6447b7a24c7f9567c8737dbee8bbfc7e6597ca0029",
  "source": "pragma solidity >=0.4.21 <0.7.4;\r\n\r\nimport \"./MyNFT.sol\";\r\n\r\ncontract Auctions {\r\n\tAuction[] public auctions;\r\n \tmapping(address => uint[]) public auctionOwner;\r\n\r\n\tstruct Auction {\r\n\t  string name; // 제목\r\n\t  uint256 price; // 가격\r\n\t  string metadata; // 메타데이터 : ipfs hash\r\n\t  uint256 tokenId; // 토큰 아이디\r\n\t  address repoAddress; // nft 컨트랙트 어드레스\r\n\t  address owner; // 소유자\t\t\t\t\r\n\t  bool active; //활성화 여부\r\n\t  bool finalized; //판매 종료여부\r\n\t}\r\n\r\n\tfunction() public {\r\n\t  revert();\r\n\t}\r\n\r\n\tmodifier contractIsNFTOwner(address _repoAddress, uint256 _tokenId) {\r\n\t  address nftOwner = MyNFT(_repoAddress).ownerOf(_tokenId);\r\n\t  require(nftOwner == address(this));\r\n\t  _;\r\n\t}\r\n\r\n\tfunction createAuction(address _repoAddress, uint256 _tokenId, string _auctionTitle, string _metadata, uint256 _price) public contractIsNFTOwner(_repoAddress, _tokenId) returns(bool) {\r\n\t\tuint auctionId = auctions.length;\r\n\t\tAuction memory newAuction;\r\n\t\tnewAuction.name = _auctionTitle;\r\n\t\tnewAuction.price = _price;\r\n\t\tnewAuction.metadata = _metadata;\r\n\t\tnewAuction.tokenId = _tokenId;\r\n\t\tnewAuction.repoAddress = _repoAddress;\r\n\t\tnewAuction.owner = msg.sender;\r\n\t\tnewAuction.active = true;\r\n        newAuction.finalized = false;\r\n\r\n\t\tauctions.push(newAuction);\r\n\t\tauctionOwner[msg.sender].push(auctionId);\r\n\r\n\t\temit AuctionCreated(msg.sender, auctionId);\r\n\t\treturn true;\r\n\t}\r\n\r\n\tfunction finalizeAuction(uint _auctionId, address _to) public {\r\n\t\tAuction memory myAuction = auctions[_auctionId];\r\n\t\tif(approveAndTransfer(address(this), _to, myAuction.repoAddress, myAuction.tokenId)){\r\n\t\t    auctions[_auctionId].active = false;\r\n\t\t    auctions[_auctionId].finalized = true;\r\n\t\t    emit AuctionFinalized(msg.sender, _auctionId);\r\n\t\t}\r\n\t}\r\n\r\n\tfunction approveAndTransfer(address _from, address _to, address _repoAddress, uint256 _tokenId) internal returns(bool) {\r\n\t\tMyNFT remoteContract = MyNFT(_repoAddress);\r\n\t\tremoteContract.approve(_to, _tokenId);\r\n\t\tremoteContract.transferFrom(_from, _to, _tokenId);\r\n\t\treturn true;\r\n\t}\r\n\r\n    function getCount() public constant returns(uint) {\r\n\t\treturn auctions.length;\r\n\t}\r\n\r\n\tfunction getAuctionsOf(address _owner) public constant returns(uint[]) {\r\n\t\tuint[] memory ownedAuctions = auctionOwner[_owner];\r\n\t\treturn ownedAuctions;\r\n\t}\r\n\r\n\tfunction getAuctionsCountOfOwner(address _owner) public constant returns(uint) {\r\n\t\treturn auctionOwner[_owner].length;\r\n\t}\r\n\r\n\tfunction getAuctionById(uint _auctionId) public constant returns(\r\n\t\tstring name,\r\n\t\tuint256 price,\r\n\t\tstring metadata,\r\n\t\tuint256 tokenId,\r\n\t\taddress repoAddress,\r\n\t\taddress owner,\r\n\t\tbool active,\r\n\t\tbool finalized) {\r\n\t\tAuction memory auc = auctions[_auctionId];\r\n\t\treturn (\r\n\t\t\tauc.name,\r\n\t\t\tauc.price,\r\n\t\t\tauc.metadata,\r\n\t\t\tauc.tokenId,\r\n\t\t\tauc.repoAddress,\r\n\t\t\tauc.owner,\r\n\t\t\tauc.active,\r\n\t\t\tauc.finalized);\r\n\t}\r\n\r\n\tevent AuctionCreated(address _owner, uint _auctionId);\r\n\tevent AuctionFinalized(address _owner, uint _auctionId);\r\n}\r\n",
  "sourcePath": "C:\\Users\\USER\\Desktop\\sejongshare\\contracts\\Auctions.sol",
  "compiler": {
    "name": "solc",
    "version": "0.4.25+commit.59dbf8f1.Emscripten.clang"
  },
  "schemaVersion": "2.0.2",
  "updatedAt": "2020-12-22T01:26:03.882Z"
}